:060000000A128A1100291A
:10000800F000030EF1000B1817210B191F21710EB8
:080018008300F00E700E0900D8
:10020000AB219321A3219A21862103138312A901F3
:10021000A801A7010508A00026212E21A901A801F7
:10022000A7012008A6006B2174217D210A29031350
:100230008312061C850A861C85030B100800031315
:100240008312E63081000B113E2108000F3020059B
:10025000A200F0302005A300A30E0800220800220F
:10026000A40023080022A50027080022AA002808CD
:100270000022AB0029080022AC00080008108810FA
:10028000081188110812211A6529A1195F2921195D
:100290005929A118532921184D29240887008814A9
:1002A0002110A1140800250887000814A1102115A9
:1002B00008002A08870008162111A11508002B083C
:1002C00087008815A111211608002C088700081541
:1002D0002112211408006430A602A90A03186B2910
:1002E000A9036430A60708000A30A602A80A03186A
:1002F0007429A8030A30A60708000130A602A70A3D
:1003000003187D29A7030130A607080003138316ED
:100310008112811101158114011003138312F03031
:1003200081000B110800031383160F140F128F1690
:100330000F17080003138316161496140313831261
:1003400006080B100800031383128B178B150B1074
:100350008B160B11080003178316880189010313FC
:1003600083160614861406118611061286120613C9
:1003700086138501870188010910891081131514DE
:100380009514031383128501860187018901880171
:04039000A1010800BF
:100400008A018A140F3982073F3406345B344F3433
:1004100066346D347D3407347F346F3477347C3404
:0804200039345E347934713483
:04400E00D420FF3F7C
:00000001FF
